{
	"data": {
		"bytecode": {
			"linkReferences": {},
			"object": "6080604052600060035534801561001557600080fd5b506108c2806100256000396000f3fe6080604052600436106100705760003560e01c80636b7087881161004e5780636b708788146100d35780638c64ea4a146100fe578063b11cd64a1461013d578063b6b55f251461016857610070565b806316f0115b146100755780633ccfd60b146100a05780635e737548146100aa575b600080fd5b34801561008157600080fd5b5061008a610184565b60405161009791906104e2565b60405180910390f35b6100a8610190565b005b3480156100b657600080fd5b506100d160048036038101906100cc9190610596565b6101d9565b005b3480156100df57600080fd5b506100e86101de565b6040516100f591906106f8565b60405180910390f35b34801561010a57600080fd5b506101256004803603810190610120919061071a565b61031e565b60405161013493929190610765565b60405180910390f35b34801561014957600080fd5b50610152610378565b60405161015f919061079c565b60405180910390f35b610182600480360381019061017d919061071a565b610382565b005b60008060000154905081565b3373ffffffffffffffffffffffffffffffffffffffff166108fc349081150290604051600060405180830381858888f193505050501580156101d6573d6000803e3d6000fd5b50565b505050565b60606000600280549050905060008167ffffffffffffffff811115610206576102056107b7565b5b60405190808252806020026020018201604052801561023f57816020015b61022c610492565b8152602001906001900390816102245790505b50905060005b828110156103155760028181548110610261576102606107e6565b5b90600052602060002090600302016040518060600160405290816000820160009054906101000a900473ffffffffffffffffffffffffffffffffffffffff1673ffffffffffffffffffffffffffffffffffffffff1673ffffffffffffffffffffffffffffffffffffffff168152602001600182015481526020016002820154815250508282815181106102f7576102f66107e6565b5b6020026020010181905250808061030d90610844565b915050610245565b50809250505090565b6002818154811061032e57600080fd5b90600052602060002090600302016000915090508060000160009054906101000a900473ffffffffffffffffffffffffffffffffffffffff16908060010154908060020154905083565b6000600354905090565b600060405180606001604052803373ffffffffffffffffffffffffffffffffffffffff168152602001838152602001348152509050600281908060018154018082558091505060019003906000526020600020906003020160009091909190915060008201518160000160006101000a81548173ffffffffffffffffffffffffffffffffffffffff021916908373ffffffffffffffffffffffffffffffffffffffff160217905550602082015181600101556040820151816002015550503373ffffffffffffffffffffffffffffffffffffffff167fe1fffcc4923d04b559f4d29a8bfc6cda04eb5b0d3c460751c2402c5c5cc9109c34604051610486919061079c565b60405180910390a25050565b6040518060600160405280600073ffffffffffffffffffffffffffffffffffffffff16815260200160008152602001600081525090565b6000819050919050565b6104dc816104c9565b82525050565b60006020820190506104f760008301846104d3565b92915050565b600080fd5b6000819050919050565b61051581610502565b811461052057600080fd5b50565b6000813590506105328161050c565b92915050565b600073ffffffffffffffffffffffffffffffffffffffff82169050919050565b600061056382610538565b9050919050565b61057381610558565b811461057e57600080fd5b50565b6000813590506105908161056a565b92915050565b6000806000606084860312156105af576105ae6104fd565b5b60006105bd86828701610523565b93505060206105ce86828701610581565b92505060406105df86828701610523565b9150509250925092565b600081519050919050565b600082825260208201905092915050565b6000819050602082019050919050565b61061e81610558565b82525050565b61062d81610502565b82525050565b6060820160008201516106496000850182610615565b50602082015161065c6020850182610624565b50604082015161066f6040850182610624565b50505050565b60006106818383610633565b60608301905092915050565b6000602082019050919050565b60006106a5826105e9565b6106af81856105f4565b93506106ba83610605565b8060005b838110156106eb5781516106d28882610675565b97506106dd8361068d565b9250506001810190506106be565b5085935050505092915050565b60006020820190508181036000830152610712818461069a565b905092915050565b6000602082840312156107305761072f6104fd565b5b600061073e84828501610523565b91505092915050565b61075081610558565b82525050565b61075f81610502565b82525050565b600060608201905061077a6000830186610747565b6107876020830185610756565b6107946040830184610756565b949350505050565b60006020820190506107b16000830184610756565b92915050565b7f4e487b7100000000000000000000000000000000000000000000000000000000600052604160045260246000fd5b7f4e487b7100000000000000000000000000000000000000000000000000000000600052603260045260246000fd5b7f4e487b7100000000000000000000000000000000000000000000000000000000600052601160045260246000fd5b600061084f82610502565b91507fffffffffffffffffffffffffffffffffffffffffffffffffffffffffffffffff820361088157610880610815565b5b60018201905091905056fea2646970667358221220daa3cc5af36ec8f63706f290b81c75c6b50793ddd5b84f4cddf529c867b606c264736f6c63430008120033",
			"opcodes": "PUSH1 0x80 PUSH1 0x40 MSTORE PUSH1 0x0 PUSH1 0x3 SSTORE CALLVALUE DUP1 ISZERO PUSH2 0x15 JUMPI PUSH1 0x0 DUP1 REVERT JUMPDEST POP PUSH2 0x8C2 DUP1 PUSH2 0x25 PUSH1 0x0 CODECOPY PUSH1 0x0 RETURN INVALID PUSH1 0x80 PUSH1 0x40 MSTORE PUSH1 0x4 CALLDATASIZE LT PUSH2 0x70 JUMPI PUSH1 0x0 CALLDATALOAD PUSH1 0xE0 SHR DUP1 PUSH4 0x6B708788 GT PUSH2 0x4E JUMPI DUP1 PUSH4 0x6B708788 EQ PUSH2 0xD3 JUMPI DUP1 PUSH4 0x8C64EA4A EQ PUSH2 0xFE JUMPI DUP1 PUSH4 0xB11CD64A EQ PUSH2 0x13D JUMPI DUP1 PUSH4 0xB6B55F25 EQ PUSH2 0x168 JUMPI PUSH2 0x70 JUMP JUMPDEST DUP1 PUSH4 0x16F0115B EQ PUSH2 0x75 JUMPI DUP1 PUSH4 0x3CCFD60B EQ PUSH2 0xA0 JUMPI DUP1 PUSH4 0x5E737548 EQ PUSH2 0xAA JUMPI JUMPDEST PUSH1 0x0 DUP1 REVERT JUMPDEST CALLVALUE DUP1 ISZERO PUSH2 0x81 JUMPI PUSH1 0x0 DUP1 REVERT JUMPDEST POP PUSH2 0x8A PUSH2 0x184 JUMP JUMPDEST PUSH1 0x40 MLOAD PUSH2 0x97 SWAP2 SWAP1 PUSH2 0x4E2 JUMP JUMPDEST PUSH1 0x40 MLOAD DUP1 SWAP2 SUB SWAP1 RETURN JUMPDEST PUSH2 0xA8 PUSH2 0x190 JUMP JUMPDEST STOP JUMPDEST CALLVALUE DUP1 ISZERO PUSH2 0xB6 JUMPI PUSH1 0x0 DUP1 REVERT JUMPDEST POP PUSH2 0xD1 PUSH1 0x4 DUP1 CALLDATASIZE SUB DUP2 ADD SWAP1 PUSH2 0xCC SWAP2 SWAP1 PUSH2 0x596 JUMP JUMPDEST PUSH2 0x1D9 JUMP JUMPDEST STOP JUMPDEST CALLVALUE DUP1 ISZERO PUSH2 0xDF JUMPI PUSH1 0x0 DUP1 REVERT JUMPDEST POP PUSH2 0xE8 PUSH2 0x1DE JUMP JUMPDEST PUSH1 0x40 MLOAD PUSH2 0xF5 SWAP2 SWAP1 PUSH2 0x6F8 JUMP JUMPDEST PUSH1 0x40 MLOAD DUP1 SWAP2 SUB SWAP1 RETURN JUMPDEST CALLVALUE DUP1 ISZERO PUSH2 0x10A JUMPI PUSH1 0x0 DUP1 REVERT JUMPDEST POP PUSH2 0x125 PUSH1 0x4 DUP1 CALLDATASIZE SUB DUP2 ADD SWAP1 PUSH2 0x120 SWAP2 SWAP1 PUSH2 0x71A JUMP JUMPDEST PUSH2 0x31E JUMP JUMPDEST PUSH1 0x40 MLOAD PUSH2 0x134 SWAP4 SWAP3 SWAP2 SWAP1 PUSH2 0x765 JUMP JUMPDEST PUSH1 0x40 MLOAD DUP1 SWAP2 SUB SWAP1 RETURN JUMPDEST CALLVALUE DUP1 ISZERO PUSH2 0x149 JUMPI PUSH1 0x0 DUP1 REVERT JUMPDEST POP PUSH2 0x152 PUSH2 0x378 JUMP JUMPDEST PUSH1 0x40 MLOAD PUSH2 0x15F SWAP2 SWAP1 PUSH2 0x79C JUMP JUMPDEST PUSH1 0x40 MLOAD DUP1 SWAP2 SUB SWAP1 RETURN JUMPDEST PUSH2 0x182 PUSH1 0x4 DUP1 CALLDATASIZE SUB DUP2 ADD SWAP1 PUSH2 0x17D SWAP2 SWAP1 PUSH2 0x71A JUMP JUMPDEST PUSH2 0x382 JUMP JUMPDEST STOP JUMPDEST PUSH1 0x0 DUP1 PUSH1 0x0 ADD SLOAD SWAP1 POP DUP2 JUMP JUMPDEST CALLER PUSH20 0xFFFFFFFFFFFFFFFFFFFFFFFFFFFFFFFFFFFFFFFF AND PUSH2 0x8FC CALLVALUE SWAP1 DUP2 ISZERO MUL SWAP1 PUSH1 0x40 MLOAD PUSH1 0x0 PUSH1 0x40 MLOAD DUP1 DUP4 SUB DUP2 DUP6 DUP9 DUP9 CALL SWAP4 POP POP POP POP ISZERO DUP1 ISZERO PUSH2 0x1D6 JUMPI RETURNDATASIZE PUSH1 0x0 DUP1 RETURNDATACOPY RETURNDATASIZE PUSH1 0x0 REVERT JUMPDEST POP JUMP JUMPDEST POP POP POP JUMP JUMPDEST PUSH1 0x60 PUSH1 0x0 PUSH1 0x2 DUP1 SLOAD SWAP1 POP SWAP1 POP PUSH1 0x0 DUP2 PUSH8 0xFFFFFFFFFFFFFFFF DUP2 GT ISZERO PUSH2 0x206 JUMPI PUSH2 0x205 PUSH2 0x7B7 JUMP JUMPDEST JUMPDEST PUSH1 0x40 MLOAD SWAP1 DUP1 DUP3 MSTORE DUP1 PUSH1 0x20 MUL PUSH1 0x20 ADD DUP3 ADD PUSH1 0x40 MSTORE DUP1 ISZERO PUSH2 0x23F JUMPI DUP2 PUSH1 0x20 ADD JUMPDEST PUSH2 0x22C PUSH2 0x492 JUMP JUMPDEST DUP2 MSTORE PUSH1 0x20 ADD SWAP1 PUSH1 0x1 SWAP1 SUB SWAP1 DUP2 PUSH2 0x224 JUMPI SWAP1 POP JUMPDEST POP SWAP1 POP PUSH1 0x0 JUMPDEST DUP3 DUP2 LT ISZERO PUSH2 0x315 JUMPI PUSH1 0x2 DUP2 DUP2 SLOAD DUP2 LT PUSH2 0x261 JUMPI PUSH2 0x260 PUSH2 0x7E6 JUMP JUMPDEST JUMPDEST SWAP1 PUSH1 0x0 MSTORE PUSH1 0x20 PUSH1 0x0 KECCAK256 SWAP1 PUSH1 0x3 MUL ADD PUSH1 0x40 MLOAD DUP1 PUSH1 0x60 ADD PUSH1 0x40 MSTORE SWAP1 DUP2 PUSH1 0x0 DUP3 ADD PUSH1 0x0 SWAP1 SLOAD SWAP1 PUSH2 0x100 EXP SWAP1 DIV PUSH20 0xFFFFFFFFFFFFFFFFFFFFFFFFFFFFFFFFFFFFFFFF AND PUSH20 0xFFFFFFFFFFFFFFFFFFFFFFFFFFFFFFFFFFFFFFFF AND PUSH20 0xFFFFFFFFFFFFFFFFFFFFFFFFFFFFFFFFFFFFFFFF AND DUP2 MSTORE PUSH1 0x20 ADD PUSH1 0x1 DUP3 ADD SLOAD DUP2 MSTORE PUSH1 0x20 ADD PUSH1 0x2 DUP3 ADD SLOAD DUP2 MSTORE POP POP DUP3 DUP3 DUP2 MLOAD DUP2 LT PUSH2 0x2F7 JUMPI PUSH2 0x2F6 PUSH2 0x7E6 JUMP JUMPDEST JUMPDEST PUSH1 0x20 MUL PUSH1 0x20 ADD ADD DUP2 SWAP1 MSTORE POP DUP1 DUP1 PUSH2 0x30D SWAP1 PUSH2 0x844 JUMP JUMPDEST SWAP2 POP POP PUSH2 0x245 JUMP JUMPDEST POP DUP1 SWAP3 POP POP POP SWAP1 JUMP JUMPDEST PUSH1 0x2 DUP2 DUP2 SLOAD DUP2 LT PUSH2 0x32E JUMPI PUSH1 0x0 DUP1 REVERT JUMPDEST SWAP1 PUSH1 0x0 MSTORE PUSH1 0x20 PUSH1 0x0 KECCAK256 SWAP1 PUSH1 0x3 MUL ADD PUSH1 0x0 SWAP2 POP SWAP1 POP DUP1 PUSH1 0x0 ADD PUSH1 0x0 SWAP1 SLOAD SWAP1 PUSH2 0x100 EXP SWAP1 DIV PUSH20 0xFFFFFFFFFFFFFFFFFFFFFFFFFFFFFFFFFFFFFFFF AND SWAP1 DUP1 PUSH1 0x1 ADD SLOAD SWAP1 DUP1 PUSH1 0x2 ADD SLOAD SWAP1 POP DUP4 JUMP JUMPDEST PUSH1 0x0 PUSH1 0x3 SLOAD SWAP1 POP SWAP1 JUMP JUMPDEST PUSH1 0x0 PUSH1 0x40 MLOAD DUP1 PUSH1 0x60 ADD PUSH1 0x40 MSTORE DUP1 CALLER PUSH20 0xFFFFFFFFFFFFFFFFFFFFFFFFFFFFFFFFFFFFFFFF AND DUP2 MSTORE PUSH1 0x20 ADD DUP4 DUP2 MSTORE PUSH1 0x20 ADD CALLVALUE DUP2 MSTORE POP SWAP1 POP PUSH1 0x2 DUP2 SWAP1 DUP1 PUSH1 0x1 DUP2 SLOAD ADD DUP1 DUP3 SSTORE DUP1 SWAP2 POP POP PUSH1 0x1 SWAP1 SUB SWAP1 PUSH1 0x0 MSTORE PUSH1 0x20 PUSH1 0x0 KECCAK256 SWAP1 PUSH1 0x3 MUL ADD PUSH1 0x0 SWAP1 SWAP2 SWAP1 SWAP2 SWAP1 SWAP2 POP PUSH1 0x0 DUP3 ADD MLOAD DUP2 PUSH1 0x0 ADD PUSH1 0x0 PUSH2 0x100 EXP DUP2 SLOAD DUP2 PUSH20 0xFFFFFFFFFFFFFFFFFFFFFFFFFFFFFFFFFFFFFFFF MUL NOT AND SWAP1 DUP4 PUSH20 0xFFFFFFFFFFFFFFFFFFFFFFFFFFFFFFFFFFFFFFFF AND MUL OR SWAP1 SSTORE POP PUSH1 0x20 DUP3 ADD MLOAD DUP2 PUSH1 0x1 ADD SSTORE PUSH1 0x40 DUP3 ADD MLOAD DUP2 PUSH1 0x2 ADD SSTORE POP POP CALLER PUSH20 0xFFFFFFFFFFFFFFFFFFFFFFFFFFFFFFFFFFFFFFFF AND PUSH32 0xE1FFFCC4923D04B559F4D29A8BFC6CDA04EB5B0D3C460751C2402C5C5CC9109C CALLVALUE PUSH1 0x40 MLOAD PUSH2 0x486 SWAP2 SWAP1 PUSH2 0x79C JUMP JUMPDEST PUSH1 0x40 MLOAD DUP1 SWAP2 SUB SWAP1 LOG2 POP POP JUMP JUMPDEST PUSH1 0x40 MLOAD DUP1 PUSH1 0x60 ADD PUSH1 0x40 MSTORE DUP1 PUSH1 0x0 PUSH20 0xFFFFFFFFFFFFFFFFFFFFFFFFFFFFFFFFFFFFFFFF AND DUP2 MSTORE PUSH1 0x20 ADD PUSH1 0x0 DUP2 MSTORE PUSH1 0x20 ADD PUSH1 0x0 DUP2 MSTORE POP SWAP1 JUMP JUMPDEST PUSH1 0x0 DUP2 SWAP1 POP SWAP2 SWAP1 POP JUMP JUMPDEST PUSH2 0x4DC DUP2 PUSH2 0x4C9 JUMP JUMPDEST DUP3 MSTORE POP POP JUMP JUMPDEST PUSH1 0x0 PUSH1 0x20 DUP3 ADD SWAP1 POP PUSH2 0x4F7 PUSH1 0x0 DUP4 ADD DUP5 PUSH2 0x4D3 JUMP JUMPDEST SWAP3 SWAP2 POP POP JUMP JUMPDEST PUSH1 0x0 DUP1 REVERT JUMPDEST PUSH1 0x0 DUP2 SWAP1 POP SWAP2 SWAP1 POP JUMP JUMPDEST PUSH2 0x515 DUP2 PUSH2 0x502 JUMP JUMPDEST DUP2 EQ PUSH2 0x520 JUMPI PUSH1 0x0 DUP1 REVERT JUMPDEST POP JUMP JUMPDEST PUSH1 0x0 DUP2 CALLDATALOAD SWAP1 POP PUSH2 0x532 DUP2 PUSH2 0x50C JUMP JUMPDEST SWAP3 SWAP2 POP POP JUMP JUMPDEST PUSH1 0x0 PUSH20 0xFFFFFFFFFFFFFFFFFFFFFFFFFFFFFFFFFFFFFFFF DUP3 AND SWAP1 POP SWAP2 SWAP1 POP JUMP JUMPDEST PUSH1 0x0 PUSH2 0x563 DUP3 PUSH2 0x538 JUMP JUMPDEST SWAP1 POP SWAP2 SWAP1 POP JUMP JUMPDEST PUSH2 0x573 DUP2 PUSH2 0x558 JUMP JUMPDEST DUP2 EQ PUSH2 0x57E JUMPI PUSH1 0x0 DUP1 REVERT JUMPDEST POP JUMP JUMPDEST PUSH1 0x0 DUP2 CALLDATALOAD SWAP1 POP PUSH2 0x590 DUP2 PUSH2 0x56A JUMP JUMPDEST SWAP3 SWAP2 POP POP JUMP JUMPDEST PUSH1 0x0 DUP1 PUSH1 0x0 PUSH1 0x60 DUP5 DUP7 SUB SLT ISZERO PUSH2 0x5AF JUMPI PUSH2 0x5AE PUSH2 0x4FD JUMP JUMPDEST JUMPDEST PUSH1 0x0 PUSH2 0x5BD DUP7 DUP3 DUP8 ADD PUSH2 0x523 JUMP JUMPDEST SWAP4 POP POP PUSH1 0x20 PUSH2 0x5CE DUP7 DUP3 DUP8 ADD PUSH2 0x581 JUMP JUMPDEST SWAP3 POP POP PUSH1 0x40 PUSH2 0x5DF DUP7 DUP3 DUP8 ADD PUSH2 0x523 JUMP JUMPDEST SWAP2 POP POP SWAP3 POP SWAP3 POP SWAP3 JUMP JUMPDEST PUSH1 0x0 DUP2 MLOAD SWAP1 POP SWAP2 SWAP1 POP JUMP JUMPDEST PUSH1 0x0 DUP3 DUP3 MSTORE PUSH1 0x20 DUP3 ADD SWAP1 POP SWAP3 SWAP2 POP POP JUMP JUMPDEST PUSH1 0x0 DUP2 SWAP1 POP PUSH1 0x20 DUP3 ADD SWAP1 POP SWAP2 SWAP1 POP JUMP JUMPDEST PUSH2 0x61E DUP2 PUSH2 0x558 JUMP JUMPDEST DUP3 MSTORE POP POP JUMP JUMPDEST PUSH2 0x62D DUP2 PUSH2 0x502 JUMP JUMPDEST DUP3 MSTORE POP POP JUMP JUMPDEST PUSH1 0x60 DUP3 ADD PUSH1 0x0 DUP3 ADD MLOAD PUSH2 0x649 PUSH1 0x0 DUP6 ADD DUP3 PUSH2 0x615 JUMP JUMPDEST POP PUSH1 0x20 DUP3 ADD MLOAD PUSH2 0x65C PUSH1 0x20 DUP6 ADD DUP3 PUSH2 0x624 JUMP JUMPDEST POP PUSH1 0x40 DUP3 ADD MLOAD PUSH2 0x66F PUSH1 0x40 DUP6 ADD DUP3 PUSH2 0x624 JUMP JUMPDEST POP POP POP POP JUMP JUMPDEST PUSH1 0x0 PUSH2 0x681 DUP4 DUP4 PUSH2 0x633 JUMP JUMPDEST PUSH1 0x60 DUP4 ADD SWAP1 POP SWAP3 SWAP2 POP POP JUMP JUMPDEST PUSH1 0x0 PUSH1 0x20 DUP3 ADD SWAP1 POP SWAP2 SWAP1 POP JUMP JUMPDEST PUSH1 0x0 PUSH2 0x6A5 DUP3 PUSH2 0x5E9 JUMP JUMPDEST PUSH2 0x6AF DUP2 DUP6 PUSH2 0x5F4 JUMP JUMPDEST SWAP4 POP PUSH2 0x6BA DUP4 PUSH2 0x605 JUMP JUMPDEST DUP1 PUSH1 0x0 JUMPDEST DUP4 DUP2 LT ISZERO PUSH2 0x6EB JUMPI DUP2 MLOAD PUSH2 0x6D2 DUP9 DUP3 PUSH2 0x675 JUMP JUMPDEST SWAP8 POP PUSH2 0x6DD DUP4 PUSH2 0x68D JUMP JUMPDEST SWAP3 POP POP PUSH1 0x1 DUP2 ADD SWAP1 POP PUSH2 0x6BE JUMP JUMPDEST POP DUP6 SWAP4 POP POP POP POP SWAP3 SWAP2 POP POP JUMP JUMPDEST PUSH1 0x0 PUSH1 0x20 DUP3 ADD SWAP1 POP DUP2 DUP2 SUB PUSH1 0x0 DUP4 ADD MSTORE PUSH2 0x712 DUP2 DUP5 PUSH2 0x69A JUMP JUMPDEST SWAP1 POP SWAP3 SWAP2 POP POP JUMP JUMPDEST PUSH1 0x0 PUSH1 0x20 DUP3 DUP5 SUB SLT ISZERO PUSH2 0x730 JUMPI PUSH2 0x72F PUSH2 0x4FD JUMP JUMPDEST JUMPDEST PUSH1 0x0 PUSH2 0x73E DUP5 DUP3 DUP6 ADD PUSH2 0x523 JUMP JUMPDEST SWAP2 POP POP SWAP3 SWAP2 POP POP JUMP JUMPDEST PUSH2 0x750 DUP2 PUSH2 0x558 JUMP JUMPDEST DUP3 MSTORE POP POP JUMP JUMPDEST PUSH2 0x75F DUP2 PUSH2 0x502 JUMP JUMPDEST DUP3 MSTORE POP POP JUMP JUMPDEST PUSH1 0x0 PUSH1 0x60 DUP3 ADD SWAP1 POP PUSH2 0x77A PUSH1 0x0 DUP4 ADD DUP7 PUSH2 0x747 JUMP JUMPDEST PUSH2 0x787 PUSH1 0x20 DUP4 ADD DUP6 PUSH2 0x756 JUMP JUMPDEST PUSH2 0x794 PUSH1 0x40 DUP4 ADD DUP5 PUSH2 0x756 JUMP JUMPDEST SWAP5 SWAP4 POP POP POP POP JUMP JUMPDEST PUSH1 0x0 PUSH1 0x20 DUP3 ADD SWAP1 POP PUSH2 0x7B1 PUSH1 0x0 DUP4 ADD DUP5 PUSH2 0x756 JUMP JUMPDEST SWAP3 SWAP2 POP POP JUMP JUMPDEST PUSH32 0x4E487B7100000000000000000000000000000000000000000000000000000000 PUSH1 0x0 MSTORE PUSH1 0x41 PUSH1 0x4 MSTORE PUSH1 0x24 PUSH1 0x0 REVERT JUMPDEST PUSH32 0x4E487B7100000000000000000000000000000000000000000000000000000000 PUSH1 0x0 MSTORE PUSH1 0x32 PUSH1 0x4 MSTORE PUSH1 0x24 PUSH1 0x0 REVERT JUMPDEST PUSH32 0x4E487B7100000000000000000000000000000000000000000000000000000000 PUSH1 0x0 MSTORE PUSH1 0x11 PUSH1 0x4 MSTORE PUSH1 0x24 PUSH1 0x0 REVERT JUMPDEST PUSH1 0x0 PUSH2 0x84F DUP3 PUSH2 0x502 JUMP JUMPDEST SWAP2 POP PUSH32 0xFFFFFFFFFFFFFFFFFFFFFFFFFFFFFFFFFFFFFFFFFFFFFFFFFFFFFFFFFFFFFFFF DUP3 SUB PUSH2 0x881 JUMPI PUSH2 0x880 PUSH2 0x815 JUMP JUMPDEST JUMPDEST PUSH1 0x1 DUP3 ADD SWAP1 POP SWAP2 SWAP1 POP JUMP INVALID LOG2 PUSH5 0x6970667358 0x22 SLT KECCAK256 0xDA LOG3 0xCC GAS RETURN PUSH15 0xC8F63706F290B81C75C6B50793DDD5 0xB8 0x4F 0x4C 0xDD CREATE2 0x29 0xC8 PUSH8 0xB606C264736F6C63 NUMBER STOP ADDMOD SLT STOP CALLER "
		},
		"gasEstimates": {
			"creation": {
				"codeDepositCost": "448400",
				"executionCost": "5492",
				"totalCost": "453892"
			},
			"external": {
				"claim(uint256,address,uint256)": "infinite",
				"deposit(uint256)": "infinite",
				"getVaultsInfo()": "infinite",
				"pool()": "2444",
				"vaults(uint256)": "infinite",
				"viewTime()": "2481",
				"withdraw()": "infinite"
			}
		},
		"methodIdentifiers": {
			"claim(uint256,address,uint256)": "5e737548",
			"deposit(uint256)": "b6b55f25",
			"getVaultsInfo()": "6b708788",
			"pool()": "16f0115b",
			"vaults(uint256)": "8c64ea4a",
			"viewTime()": "b11cd64a",
			"withdraw()": "3ccfd60b"
		}
	},
	"abi": [
		{
			"anonymous": false,
			"inputs": [
				{
					"indexed": true,
					"internalType": "address",
					"name": "sender",
					"type": "address"
				},
				{
					"indexed": false,
					"internalType": "uint256",
					"name": "amount",
					"type": "uint256"
				}
			],
			"name": "Deposit",
			"type": "event"
		},
		{
			"anonymous": false,
			"inputs": [
				{
					"indexed": false,
					"internalType": "bytes32",
					"name": "message",
					"type": "bytes32"
				}
			],
			"name": "LogMessage",
			"type": "event"
		},
		{
			"inputs": [
				{
					"internalType": "uint256",
					"name": "value",
					"type": "uint256"
				},
				{
					"internalType": "address",
					"name": "acc",
					"type": "address"
				},
				{
					"internalType": "uint256",
					"name": "pool_id",
					"type": "uint256"
				}
			],
			"name": "claim",
			"outputs": [],
			"stateMutability": "nonpayable",
			"type": "function"
		},
		{
			"inputs": [
				{
					"internalType": "uint256",
					"name": "lottery_id",
					"type": "uint256"
				}
			],
			"name": "deposit",
			"outputs": [],
			"stateMutability": "payable",
			"type": "function"
		},
		{
			"inputs": [],
			"name": "getVaultsInfo",
			"outputs": [
				{
					"components": [
						{
							"internalType": "address",
							"name": "user",
							"type": "address"
						},
						{
							"internalType": "uint256",
							"name": "value",
							"type": "uint256"
						},
						{
							"internalType": "uint256",
							"name": "amount",
							"type": "uint256"
						}
					],
					"internalType": "struct DeBetPool.Vault[]",
					"name": "",
					"type": "tuple[]"
				}
			],
			"stateMutability": "view",
			"type": "function"
		},
		{
			"inputs": [],
			"name": "pool",
			"outputs": [
				{
					"internalType": "bytes32",
					"name": "pool_id",
					"type": "bytes32"
				}
			],
			"stateMutability": "view",
			"type": "function"
		},
		{
			"inputs": [
				{
					"internalType": "uint256",
					"name": "",
					"type": "uint256"
				}
			],
			"name": "vaults",
			"outputs": [
				{
					"internalType": "address",
					"name": "user",
					"type": "address"
				},
				{
					"internalType": "uint256",
					"name": "value",
					"type": "uint256"
				},
				{
					"internalType": "uint256",
					"name": "amount",
					"type": "uint256"
				}
			],
			"stateMutability": "view",
			"type": "function"
		},
		{
			"inputs": [],
			"name": "viewTime",
			"outputs": [
				{
					"internalType": "uint256",
					"name": "time",
					"type": "uint256"
				}
			],
			"stateMutability": "view",
			"type": "function"
		},
		{
			"inputs": [],
			"name": "withdraw",
			"outputs": [],
			"stateMutability": "payable",
			"type": "function"
		}
	]
}