{
	"data": {
		"bytecode": {
			"linkReferences": {},
			"object": "6080604052600060035534801561001557600080fd5b5060405161094b38038061094b83398181016040528101906100379190610081565b806000800181905550506100ae565b600080fd5b6000819050919050565b61005e8161004b565b811461006957600080fd5b50565b60008151905061007b81610055565b92915050565b60006020828403121561009757610096610046565b5b60006100a58482850161006c565b91505092915050565b61088e806100bd6000396000f3fe6080604052600436106100705760003560e01c80636b7087881161004e5780636b708788146100d35780638c64ea4a146100fe578063b11cd64a1461013d578063b6b55f251461016857610070565b806316f0115b146100755780633ccfd60b146100a05780635e737548146100aa575b600080fd5b34801561008157600080fd5b5061008a610184565b60405161009791906104e2565b60405180910390f35b6100a8610190565b005b3480156100b657600080fd5b506100d160048036038101906100cc919061058c565b6101d9565b005b3480156100df57600080fd5b506100e86101de565b6040516100f591906106ee565b60405180910390f35b34801561010a57600080fd5b5061012560048036038101906101209190610710565b61031e565b6040516101349392919061074c565b60405180910390f35b34801561014957600080fd5b50610152610378565b60405161015f91906104e2565b60405180910390f35b610182600480360381019061017d9190610710565b610382565b005b60008060000154905081565b3373ffffffffffffffffffffffffffffffffffffffff166108fc349081150290604051600060405180830381858888f193505050501580156101d6573d6000803e3d6000fd5b50565b505050565b60606000600280549050905060008167ffffffffffffffff81111561020657610205610783565b5b60405190808252806020026020018201604052801561023f57816020015b61022c610492565b8152602001906001900390816102245790505b50905060005b828110156103155760028181548110610261576102606107b2565b5b90600052602060002090600302016040518060600160405290816000820160009054906101000a900473ffffffffffffffffffffffffffffffffffffffff1673ffffffffffffffffffffffffffffffffffffffff1673ffffffffffffffffffffffffffffffffffffffff168152602001600182015481526020016002820154815250508282815181106102f7576102f66107b2565b5b6020026020010181905250808061030d90610810565b915050610245565b50809250505090565b6002818154811061032e57600080fd5b90600052602060002090600302016000915090508060000160009054906101000a900473ffffffffffffffffffffffffffffffffffffffff16908060010154908060020154905083565b6000600354905090565b600060405180606001604052803373ffffffffffffffffffffffffffffffffffffffff168152602001838152602001348152509050600281908060018154018082558091505060019003906000526020600020906003020160009091909190915060008201518160000160006101000a81548173ffffffffffffffffffffffffffffffffffffffff021916908373ffffffffffffffffffffffffffffffffffffffff160217905550602082015181600101556040820151816002015550503373ffffffffffffffffffffffffffffffffffffffff167fe1fffcc4923d04b559f4d29a8bfc6cda04eb5b0d3c460751c2402c5c5cc9109c3460405161048691906104e2565b60405180910390a25050565b6040518060600160405280600073ffffffffffffffffffffffffffffffffffffffff16815260200160008152602001600081525090565b6000819050919050565b6104dc816104c9565b82525050565b60006020820190506104f760008301846104d3565b92915050565b600080fd5b61050b816104c9565b811461051657600080fd5b50565b60008135905061052881610502565b92915050565b600073ffffffffffffffffffffffffffffffffffffffff82169050919050565b60006105598261052e565b9050919050565b6105698161054e565b811461057457600080fd5b50565b60008135905061058681610560565b92915050565b6000806000606084860312156105a5576105a46104fd565b5b60006105b386828701610519565b93505060206105c486828701610577565b92505060406105d586828701610519565b9150509250925092565b600081519050919050565b600082825260208201905092915050565b6000819050602082019050919050565b6106148161054e565b82525050565b610623816104c9565b82525050565b60608201600082015161063f600085018261060b565b506020820151610652602085018261061a565b506040820151610665604085018261061a565b50505050565b60006106778383610629565b60608301905092915050565b6000602082019050919050565b600061069b826105df565b6106a581856105ea565b93506106b0836105fb565b8060005b838110156106e15781516106c8888261066b565b97506106d383610683565b9250506001810190506106b4565b5085935050505092915050565b600060208201905081810360008301526107088184610690565b905092915050565b600060208284031215610726576107256104fd565b5b600061073484828501610519565b91505092915050565b6107468161054e565b82525050565b6000606082019050610761600083018661073d565b61076e60208301856104d3565b61077b60408301846104d3565b949350505050565b7f4e487b7100000000000000000000000000000000000000000000000000000000600052604160045260246000fd5b7f4e487b7100000000000000000000000000000000000000000000000000000000600052603260045260246000fd5b7f4e487b7100000000000000000000000000000000000000000000000000000000600052601160045260246000fd5b600061081b826104c9565b91507fffffffffffffffffffffffffffffffffffffffffffffffffffffffffffffffff820361084d5761084c6107e1565b5b60018201905091905056fea2646970667358221220798de6495069d0fe759e5b8c26297145c6a9efbc51a43b03616bfd1fe7f6f88064736f6c63430008120033",
			"opcodes": "PUSH1 0x80 PUSH1 0x40 MSTORE PUSH1 0x0 PUSH1 0x3 SSTORE CALLVALUE DUP1 ISZERO PUSH2 0x15 JUMPI PUSH1 0x0 DUP1 REVERT JUMPDEST POP PUSH1 0x40 MLOAD PUSH2 0x94B CODESIZE SUB DUP1 PUSH2 0x94B DUP4 CODECOPY DUP2 DUP2 ADD PUSH1 0x40 MSTORE DUP2 ADD SWAP1 PUSH2 0x37 SWAP2 SWAP1 PUSH2 0x81 JUMP JUMPDEST DUP1 PUSH1 0x0 DUP1 ADD DUP2 SWAP1 SSTORE POP POP PUSH2 0xAE JUMP JUMPDEST PUSH1 0x0 DUP1 REVERT JUMPDEST PUSH1 0x0 DUP2 SWAP1 POP SWAP2 SWAP1 POP JUMP JUMPDEST PUSH2 0x5E DUP2 PUSH2 0x4B JUMP JUMPDEST DUP2 EQ PUSH2 0x69 JUMPI PUSH1 0x0 DUP1 REVERT JUMPDEST POP JUMP JUMPDEST PUSH1 0x0 DUP2 MLOAD SWAP1 POP PUSH2 0x7B DUP2 PUSH2 0x55 JUMP JUMPDEST SWAP3 SWAP2 POP POP JUMP JUMPDEST PUSH1 0x0 PUSH1 0x20 DUP3 DUP5 SUB SLT ISZERO PUSH2 0x97 JUMPI PUSH2 0x96 PUSH2 0x46 JUMP JUMPDEST JUMPDEST PUSH1 0x0 PUSH2 0xA5 DUP5 DUP3 DUP6 ADD PUSH2 0x6C JUMP JUMPDEST SWAP2 POP POP SWAP3 SWAP2 POP POP JUMP JUMPDEST PUSH2 0x88E DUP1 PUSH2 0xBD PUSH1 0x0 CODECOPY PUSH1 0x0 RETURN INVALID PUSH1 0x80 PUSH1 0x40 MSTORE PUSH1 0x4 CALLDATASIZE LT PUSH2 0x70 JUMPI PUSH1 0x0 CALLDATALOAD PUSH1 0xE0 SHR DUP1 PUSH4 0x6B708788 GT PUSH2 0x4E JUMPI DUP1 PUSH4 0x6B708788 EQ PUSH2 0xD3 JUMPI DUP1 PUSH4 0x8C64EA4A EQ PUSH2 0xFE JUMPI DUP1 PUSH4 0xB11CD64A EQ PUSH2 0x13D JUMPI DUP1 PUSH4 0xB6B55F25 EQ PUSH2 0x168 JUMPI PUSH2 0x70 JUMP JUMPDEST DUP1 PUSH4 0x16F0115B EQ PUSH2 0x75 JUMPI DUP1 PUSH4 0x3CCFD60B EQ PUSH2 0xA0 JUMPI DUP1 PUSH4 0x5E737548 EQ PUSH2 0xAA JUMPI JUMPDEST PUSH1 0x0 DUP1 REVERT JUMPDEST CALLVALUE DUP1 ISZERO PUSH2 0x81 JUMPI PUSH1 0x0 DUP1 REVERT JUMPDEST POP PUSH2 0x8A PUSH2 0x184 JUMP JUMPDEST PUSH1 0x40 MLOAD PUSH2 0x97 SWAP2 SWAP1 PUSH2 0x4E2 JUMP JUMPDEST PUSH1 0x40 MLOAD DUP1 SWAP2 SUB SWAP1 RETURN JUMPDEST PUSH2 0xA8 PUSH2 0x190 JUMP JUMPDEST STOP JUMPDEST CALLVALUE DUP1 ISZERO PUSH2 0xB6 JUMPI PUSH1 0x0 DUP1 REVERT JUMPDEST POP PUSH2 0xD1 PUSH1 0x4 DUP1 CALLDATASIZE SUB DUP2 ADD SWAP1 PUSH2 0xCC SWAP2 SWAP1 PUSH2 0x58C JUMP JUMPDEST PUSH2 0x1D9 JUMP JUMPDEST STOP JUMPDEST CALLVALUE DUP1 ISZERO PUSH2 0xDF JUMPI PUSH1 0x0 DUP1 REVERT JUMPDEST POP PUSH2 0xE8 PUSH2 0x1DE JUMP JUMPDEST PUSH1 0x40 MLOAD PUSH2 0xF5 SWAP2 SWAP1 PUSH2 0x6EE JUMP JUMPDEST PUSH1 0x40 MLOAD DUP1 SWAP2 SUB SWAP1 RETURN JUMPDEST CALLVALUE DUP1 ISZERO PUSH2 0x10A JUMPI PUSH1 0x0 DUP1 REVERT JUMPDEST POP PUSH2 0x125 PUSH1 0x4 DUP1 CALLDATASIZE SUB DUP2 ADD SWAP1 PUSH2 0x120 SWAP2 SWAP1 PUSH2 0x710 JUMP JUMPDEST PUSH2 0x31E JUMP JUMPDEST PUSH1 0x40 MLOAD PUSH2 0x134 SWAP4 SWAP3 SWAP2 SWAP1 PUSH2 0x74C JUMP JUMPDEST PUSH1 0x40 MLOAD DUP1 SWAP2 SUB SWAP1 RETURN JUMPDEST CALLVALUE DUP1 ISZERO PUSH2 0x149 JUMPI PUSH1 0x0 DUP1 REVERT JUMPDEST POP PUSH2 0x152 PUSH2 0x378 JUMP JUMPDEST PUSH1 0x40 MLOAD PUSH2 0x15F SWAP2 SWAP1 PUSH2 0x4E2 JUMP JUMPDEST PUSH1 0x40 MLOAD DUP1 SWAP2 SUB SWAP1 RETURN JUMPDEST PUSH2 0x182 PUSH1 0x4 DUP1 CALLDATASIZE SUB DUP2 ADD SWAP1 PUSH2 0x17D SWAP2 SWAP1 PUSH2 0x710 JUMP JUMPDEST PUSH2 0x382 JUMP JUMPDEST STOP JUMPDEST PUSH1 0x0 DUP1 PUSH1 0x0 ADD SLOAD SWAP1 POP DUP2 JUMP JUMPDEST CALLER PUSH20 0xFFFFFFFFFFFFFFFFFFFFFFFFFFFFFFFFFFFFFFFF AND PUSH2 0x8FC CALLVALUE SWAP1 DUP2 ISZERO MUL SWAP1 PUSH1 0x40 MLOAD PUSH1 0x0 PUSH1 0x40 MLOAD DUP1 DUP4 SUB DUP2 DUP6 DUP9 DUP9 CALL SWAP4 POP POP POP POP ISZERO DUP1 ISZERO PUSH2 0x1D6 JUMPI RETURNDATASIZE PUSH1 0x0 DUP1 RETURNDATACOPY RETURNDATASIZE PUSH1 0x0 REVERT JUMPDEST POP JUMP JUMPDEST POP POP POP JUMP JUMPDEST PUSH1 0x60 PUSH1 0x0 PUSH1 0x2 DUP1 SLOAD SWAP1 POP SWAP1 POP PUSH1 0x0 DUP2 PUSH8 0xFFFFFFFFFFFFFFFF DUP2 GT ISZERO PUSH2 0x206 JUMPI PUSH2 0x205 PUSH2 0x783 JUMP JUMPDEST JUMPDEST PUSH1 0x40 MLOAD SWAP1 DUP1 DUP3 MSTORE DUP1 PUSH1 0x20 MUL PUSH1 0x20 ADD DUP3 ADD PUSH1 0x40 MSTORE DUP1 ISZERO PUSH2 0x23F JUMPI DUP2 PUSH1 0x20 ADD JUMPDEST PUSH2 0x22C PUSH2 0x492 JUMP JUMPDEST DUP2 MSTORE PUSH1 0x20 ADD SWAP1 PUSH1 0x1 SWAP1 SUB SWAP1 DUP2 PUSH2 0x224 JUMPI SWAP1 POP JUMPDEST POP SWAP1 POP PUSH1 0x0 JUMPDEST DUP3 DUP2 LT ISZERO PUSH2 0x315 JUMPI PUSH1 0x2 DUP2 DUP2 SLOAD DUP2 LT PUSH2 0x261 JUMPI PUSH2 0x260 PUSH2 0x7B2 JUMP JUMPDEST JUMPDEST SWAP1 PUSH1 0x0 MSTORE PUSH1 0x20 PUSH1 0x0 KECCAK256 SWAP1 PUSH1 0x3 MUL ADD PUSH1 0x40 MLOAD DUP1 PUSH1 0x60 ADD PUSH1 0x40 MSTORE SWAP1 DUP2 PUSH1 0x0 DUP3 ADD PUSH1 0x0 SWAP1 SLOAD SWAP1 PUSH2 0x100 EXP SWAP1 DIV PUSH20 0xFFFFFFFFFFFFFFFFFFFFFFFFFFFFFFFFFFFFFFFF AND PUSH20 0xFFFFFFFFFFFFFFFFFFFFFFFFFFFFFFFFFFFFFFFF AND PUSH20 0xFFFFFFFFFFFFFFFFFFFFFFFFFFFFFFFFFFFFFFFF AND DUP2 MSTORE PUSH1 0x20 ADD PUSH1 0x1 DUP3 ADD SLOAD DUP2 MSTORE PUSH1 0x20 ADD PUSH1 0x2 DUP3 ADD SLOAD DUP2 MSTORE POP POP DUP3 DUP3 DUP2 MLOAD DUP2 LT PUSH2 0x2F7 JUMPI PUSH2 0x2F6 PUSH2 0x7B2 JUMP JUMPDEST JUMPDEST PUSH1 0x20 MUL PUSH1 0x20 ADD ADD DUP2 SWAP1 MSTORE POP DUP1 DUP1 PUSH2 0x30D SWAP1 PUSH2 0x810 JUMP JUMPDEST SWAP2 POP POP PUSH2 0x245 JUMP JUMPDEST POP DUP1 SWAP3 POP POP POP SWAP1 JUMP JUMPDEST PUSH1 0x2 DUP2 DUP2 SLOAD DUP2 LT PUSH2 0x32E JUMPI PUSH1 0x0 DUP1 REVERT JUMPDEST SWAP1 PUSH1 0x0 MSTORE PUSH1 0x20 PUSH1 0x0 KECCAK256 SWAP1 PUSH1 0x3 MUL ADD PUSH1 0x0 SWAP2 POP SWAP1 POP DUP1 PUSH1 0x0 ADD PUSH1 0x0 SWAP1 SLOAD SWAP1 PUSH2 0x100 EXP SWAP1 DIV PUSH20 0xFFFFFFFFFFFFFFFFFFFFFFFFFFFFFFFFFFFFFFFF AND SWAP1 DUP1 PUSH1 0x1 ADD SLOAD SWAP1 DUP1 PUSH1 0x2 ADD SLOAD SWAP1 POP DUP4 JUMP JUMPDEST PUSH1 0x0 PUSH1 0x3 SLOAD SWAP1 POP SWAP1 JUMP JUMPDEST PUSH1 0x0 PUSH1 0x40 MLOAD DUP1 PUSH1 0x60 ADD PUSH1 0x40 MSTORE DUP1 CALLER PUSH20 0xFFFFFFFFFFFFFFFFFFFFFFFFFFFFFFFFFFFFFFFF AND DUP2 MSTORE PUSH1 0x20 ADD DUP4 DUP2 MSTORE PUSH1 0x20 ADD CALLVALUE DUP2 MSTORE POP SWAP1 POP PUSH1 0x2 DUP2 SWAP1 DUP1 PUSH1 0x1 DUP2 SLOAD ADD DUP1 DUP3 SSTORE DUP1 SWAP2 POP POP PUSH1 0x1 SWAP1 SUB SWAP1 PUSH1 0x0 MSTORE PUSH1 0x20 PUSH1 0x0 KECCAK256 SWAP1 PUSH1 0x3 MUL ADD PUSH1 0x0 SWAP1 SWAP2 SWAP1 SWAP2 SWAP1 SWAP2 POP PUSH1 0x0 DUP3 ADD MLOAD DUP2 PUSH1 0x0 ADD PUSH1 0x0 PUSH2 0x100 EXP DUP2 SLOAD DUP2 PUSH20 0xFFFFFFFFFFFFFFFFFFFFFFFFFFFFFFFFFFFFFFFF MUL NOT AND SWAP1 DUP4 PUSH20 0xFFFFFFFFFFFFFFFFFFFFFFFFFFFFFFFFFFFFFFFF AND MUL OR SWAP1 SSTORE POP PUSH1 0x20 DUP3 ADD MLOAD DUP2 PUSH1 0x1 ADD SSTORE PUSH1 0x40 DUP3 ADD MLOAD DUP2 PUSH1 0x2 ADD SSTORE POP POP CALLER PUSH20 0xFFFFFFFFFFFFFFFFFFFFFFFFFFFFFFFFFFFFFFFF AND PUSH32 0xE1FFFCC4923D04B559F4D29A8BFC6CDA04EB5B0D3C460751C2402C5C5CC9109C CALLVALUE PUSH1 0x40 MLOAD PUSH2 0x486 SWAP2 SWAP1 PUSH2 0x4E2 JUMP JUMPDEST PUSH1 0x40 MLOAD DUP1 SWAP2 SUB SWAP1 LOG2 POP POP JUMP JUMPDEST PUSH1 0x40 MLOAD DUP1 PUSH1 0x60 ADD PUSH1 0x40 MSTORE DUP1 PUSH1 0x0 PUSH20 0xFFFFFFFFFFFFFFFFFFFFFFFFFFFFFFFFFFFFFFFF AND DUP2 MSTORE PUSH1 0x20 ADD PUSH1 0x0 DUP2 MSTORE PUSH1 0x20 ADD PUSH1 0x0 DUP2 MSTORE POP SWAP1 JUMP JUMPDEST PUSH1 0x0 DUP2 SWAP1 POP SWAP2 SWAP1 POP JUMP JUMPDEST PUSH2 0x4DC DUP2 PUSH2 0x4C9 JUMP JUMPDEST DUP3 MSTORE POP POP JUMP JUMPDEST PUSH1 0x0 PUSH1 0x20 DUP3 ADD SWAP1 POP PUSH2 0x4F7 PUSH1 0x0 DUP4 ADD DUP5 PUSH2 0x4D3 JUMP JUMPDEST SWAP3 SWAP2 POP POP JUMP JUMPDEST PUSH1 0x0 DUP1 REVERT JUMPDEST PUSH2 0x50B DUP2 PUSH2 0x4C9 JUMP JUMPDEST DUP2 EQ PUSH2 0x516 JUMPI PUSH1 0x0 DUP1 REVERT JUMPDEST POP JUMP JUMPDEST PUSH1 0x0 DUP2 CALLDATALOAD SWAP1 POP PUSH2 0x528 DUP2 PUSH2 0x502 JUMP JUMPDEST SWAP3 SWAP2 POP POP JUMP JUMPDEST PUSH1 0x0 PUSH20 0xFFFFFFFFFFFFFFFFFFFFFFFFFFFFFFFFFFFFFFFF DUP3 AND SWAP1 POP SWAP2 SWAP1 POP JUMP JUMPDEST PUSH1 0x0 PUSH2 0x559 DUP3 PUSH2 0x52E JUMP JUMPDEST SWAP1 POP SWAP2 SWAP1 POP JUMP JUMPDEST PUSH2 0x569 DUP2 PUSH2 0x54E JUMP JUMPDEST DUP2 EQ PUSH2 0x574 JUMPI PUSH1 0x0 DUP1 REVERT JUMPDEST POP JUMP JUMPDEST PUSH1 0x0 DUP2 CALLDATALOAD SWAP1 POP PUSH2 0x586 DUP2 PUSH2 0x560 JUMP JUMPDEST SWAP3 SWAP2 POP POP JUMP JUMPDEST PUSH1 0x0 DUP1 PUSH1 0x0 PUSH1 0x60 DUP5 DUP7 SUB SLT ISZERO PUSH2 0x5A5 JUMPI PUSH2 0x5A4 PUSH2 0x4FD JUMP JUMPDEST JUMPDEST PUSH1 0x0 PUSH2 0x5B3 DUP7 DUP3 DUP8 ADD PUSH2 0x519 JUMP JUMPDEST SWAP4 POP POP PUSH1 0x20 PUSH2 0x5C4 DUP7 DUP3 DUP8 ADD PUSH2 0x577 JUMP JUMPDEST SWAP3 POP POP PUSH1 0x40 PUSH2 0x5D5 DUP7 DUP3 DUP8 ADD PUSH2 0x519 JUMP JUMPDEST SWAP2 POP POP SWAP3 POP SWAP3 POP SWAP3 JUMP JUMPDEST PUSH1 0x0 DUP2 MLOAD SWAP1 POP SWAP2 SWAP1 POP JUMP JUMPDEST PUSH1 0x0 DUP3 DUP3 MSTORE PUSH1 0x20 DUP3 ADD SWAP1 POP SWAP3 SWAP2 POP POP JUMP JUMPDEST PUSH1 0x0 DUP2 SWAP1 POP PUSH1 0x20 DUP3 ADD SWAP1 POP SWAP2 SWAP1 POP JUMP JUMPDEST PUSH2 0x614 DUP2 PUSH2 0x54E JUMP JUMPDEST DUP3 MSTORE POP POP JUMP JUMPDEST PUSH2 0x623 DUP2 PUSH2 0x4C9 JUMP JUMPDEST DUP3 MSTORE POP POP JUMP JUMPDEST PUSH1 0x60 DUP3 ADD PUSH1 0x0 DUP3 ADD MLOAD PUSH2 0x63F PUSH1 0x0 DUP6 ADD DUP3 PUSH2 0x60B JUMP JUMPDEST POP PUSH1 0x20 DUP3 ADD MLOAD PUSH2 0x652 PUSH1 0x20 DUP6 ADD DUP3 PUSH2 0x61A JUMP JUMPDEST POP PUSH1 0x40 DUP3 ADD MLOAD PUSH2 0x665 PUSH1 0x40 DUP6 ADD DUP3 PUSH2 0x61A JUMP JUMPDEST POP POP POP POP JUMP JUMPDEST PUSH1 0x0 PUSH2 0x677 DUP4 DUP4 PUSH2 0x629 JUMP JUMPDEST PUSH1 0x60 DUP4 ADD SWAP1 POP SWAP3 SWAP2 POP POP JUMP JUMPDEST PUSH1 0x0 PUSH1 0x20 DUP3 ADD SWAP1 POP SWAP2 SWAP1 POP JUMP JUMPDEST PUSH1 0x0 PUSH2 0x69B DUP3 PUSH2 0x5DF JUMP JUMPDEST PUSH2 0x6A5 DUP2 DUP6 PUSH2 0x5EA JUMP JUMPDEST SWAP4 POP PUSH2 0x6B0 DUP4 PUSH2 0x5FB JUMP JUMPDEST DUP1 PUSH1 0x0 JUMPDEST DUP4 DUP2 LT ISZERO PUSH2 0x6E1 JUMPI DUP2 MLOAD PUSH2 0x6C8 DUP9 DUP3 PUSH2 0x66B JUMP JUMPDEST SWAP8 POP PUSH2 0x6D3 DUP4 PUSH2 0x683 JUMP JUMPDEST SWAP3 POP POP PUSH1 0x1 DUP2 ADD SWAP1 POP PUSH2 0x6B4 JUMP JUMPDEST POP DUP6 SWAP4 POP POP POP POP SWAP3 SWAP2 POP POP JUMP JUMPDEST PUSH1 0x0 PUSH1 0x20 DUP3 ADD SWAP1 POP DUP2 DUP2 SUB PUSH1 0x0 DUP4 ADD MSTORE PUSH2 0x708 DUP2 DUP5 PUSH2 0x690 JUMP JUMPDEST SWAP1 POP SWAP3 SWAP2 POP POP JUMP JUMPDEST PUSH1 0x0 PUSH1 0x20 DUP3 DUP5 SUB SLT ISZERO PUSH2 0x726 JUMPI PUSH2 0x725 PUSH2 0x4FD JUMP JUMPDEST JUMPDEST PUSH1 0x0 PUSH2 0x734 DUP5 DUP3 DUP6 ADD PUSH2 0x519 JUMP JUMPDEST SWAP2 POP POP SWAP3 SWAP2 POP POP JUMP JUMPDEST PUSH2 0x746 DUP2 PUSH2 0x54E JUMP JUMPDEST DUP3 MSTORE POP POP JUMP JUMPDEST PUSH1 0x0 PUSH1 0x60 DUP3 ADD SWAP1 POP PUSH2 0x761 PUSH1 0x0 DUP4 ADD DUP7 PUSH2 0x73D JUMP JUMPDEST PUSH2 0x76E PUSH1 0x20 DUP4 ADD DUP6 PUSH2 0x4D3 JUMP JUMPDEST PUSH2 0x77B PUSH1 0x40 DUP4 ADD DUP5 PUSH2 0x4D3 JUMP JUMPDEST SWAP5 SWAP4 POP POP POP POP JUMP JUMPDEST PUSH32 0x4E487B7100000000000000000000000000000000000000000000000000000000 PUSH1 0x0 MSTORE PUSH1 0x41 PUSH1 0x4 MSTORE PUSH1 0x24 PUSH1 0x0 REVERT JUMPDEST PUSH32 0x4E487B7100000000000000000000000000000000000000000000000000000000 PUSH1 0x0 MSTORE PUSH1 0x32 PUSH1 0x4 MSTORE PUSH1 0x24 PUSH1 0x0 REVERT JUMPDEST PUSH32 0x4E487B7100000000000000000000000000000000000000000000000000000000 PUSH1 0x0 MSTORE PUSH1 0x11 PUSH1 0x4 MSTORE PUSH1 0x24 PUSH1 0x0 REVERT JUMPDEST PUSH1 0x0 PUSH2 0x81B DUP3 PUSH2 0x4C9 JUMP JUMPDEST SWAP2 POP PUSH32 0xFFFFFFFFFFFFFFFFFFFFFFFFFFFFFFFFFFFFFFFFFFFFFFFFFFFFFFFFFFFFFFFF DUP3 SUB PUSH2 0x84D JUMPI PUSH2 0x84C PUSH2 0x7E1 JUMP JUMPDEST JUMPDEST PUSH1 0x1 DUP3 ADD SWAP1 POP SWAP2 SWAP1 POP JUMP INVALID LOG2 PUSH5 0x6970667358 0x22 SLT KECCAK256 PUSH26 0x8DE6495069D0FE759E5B8C26297145C6A9EFBC51A43B03616BFD 0x1F 0xE7 0xF6 0xF8 DUP1 PUSH5 0x736F6C6343 STOP ADDMOD SLT STOP CALLER "
		},
		"gasEstimates": {
			"creation": {
				"codeDepositCost": "438000",
				"executionCost": "infinite",
				"totalCost": "infinite"
			},
			"external": {
				"claim(uint256,address,uint256)": "infinite",
				"deposit(uint256)": "infinite",
				"getVaultsInfo()": "infinite",
				"pool()": "2444",
				"vaults(uint256)": "infinite",
				"viewTime()": "2481",
				"withdraw()": "infinite"
			}
		},
		"methodIdentifiers": {
			"claim(uint256,address,uint256)": "5e737548",
			"deposit(uint256)": "b6b55f25",
			"getVaultsInfo()": "6b708788",
			"pool()": "16f0115b",
			"vaults(uint256)": "8c64ea4a",
			"viewTime()": "b11cd64a",
			"withdraw()": "3ccfd60b"
		}
	},
	"abi": [
		{
			"inputs": [
				{
					"internalType": "uint256",
					"name": "text",
					"type": "uint256"
				}
			],
			"stateMutability": "nonpayable",
			"type": "constructor"
		},
		{
			"anonymous": false,
			"inputs": [
				{
					"indexed": true,
					"internalType": "address",
					"name": "sender",
					"type": "address"
				},
				{
					"indexed": false,
					"internalType": "uint256",
					"name": "amount",
					"type": "uint256"
				}
			],
			"name": "Deposit",
			"type": "event"
		},
		{
			"anonymous": false,
			"inputs": [
				{
					"indexed": false,
					"internalType": "bytes32",
					"name": "message",
					"type": "bytes32"
				}
			],
			"name": "LogMessage",
			"type": "event"
		},
		{
			"inputs": [
				{
					"internalType": "uint256",
					"name": "value",
					"type": "uint256"
				},
				{
					"internalType": "address",
					"name": "acc",
					"type": "address"
				},
				{
					"internalType": "uint256",
					"name": "pool_id",
					"type": "uint256"
				}
			],
			"name": "claim",
			"outputs": [],
			"stateMutability": "nonpayable",
			"type": "function"
		},
		{
			"inputs": [
				{
					"internalType": "uint256",
					"name": "lottery_id",
					"type": "uint256"
				}
			],
			"name": "deposit",
			"outputs": [],
			"stateMutability": "payable",
			"type": "function"
		},
		{
			"inputs": [],
			"name": "getVaultsInfo",
			"outputs": [
				{
					"components": [
						{
							"internalType": "address",
							"name": "user",
							"type": "address"
						},
						{
							"internalType": "uint256",
							"name": "value",
							"type": "uint256"
						},
						{
							"internalType": "uint256",
							"name": "amount",
							"type": "uint256"
						}
					],
					"internalType": "struct P.Vault[]",
					"name": "",
					"type": "tuple[]"
				}
			],
			"stateMutability": "view",
			"type": "function"
		},
		{
			"inputs": [],
			"name": "pool",
			"outputs": [
				{
					"internalType": "uint256",
					"name": "pool_id",
					"type": "uint256"
				}
			],
			"stateMutability": "view",
			"type": "function"
		},
		{
			"inputs": [
				{
					"internalType": "uint256",
					"name": "",
					"type": "uint256"
				}
			],
			"name": "vaults",
			"outputs": [
				{
					"internalType": "address",
					"name": "user",
					"type": "address"
				},
				{
					"internalType": "uint256",
					"name": "value",
					"type": "uint256"
				},
				{
					"internalType": "uint256",
					"name": "amount",
					"type": "uint256"
				}
			],
			"stateMutability": "view",
			"type": "function"
		},
		{
			"inputs": [],
			"name": "viewTime",
			"outputs": [
				{
					"internalType": "uint256",
					"name": "time",
					"type": "uint256"
				}
			],
			"stateMutability": "view",
			"type": "function"
		},
		{
			"inputs": [],
			"name": "withdraw",
			"outputs": [],
			"stateMutability": "payable",
			"type": "function"
		}
	]
}